{
  "_format": "hh-sol-artifact-1",
  "contractName": "BlOcXTacToe",
  "sourceName": "contracts/BlOcXTacToe.sol",
  "abi": [
    {
      "inputs": [],
      "stateMutability": "nonpayable",
      "type": "constructor"
    },
    {
      "inputs": [],
      "name": "Accepted",
      "type": "error"
    },
    {
      "inputs": [],
      "name": "BetMismatch",
      "type": "error"
    },
    {
      "inputs": [],
      "name": "Claimed",
      "type": "error"
    },
    {
      "inputs": [],
      "name": "EnforcedPause",
      "type": "error"
    },
    {
      "inputs": [],
      "name": "ExpectedPause",
      "type": "error"
    },
    {
      "inputs": [],
      "name": "InvalidAddr",
      "type": "error"
    },
    {
      "inputs": [],
      "name": "InvalidBet",
      "type": "error"
    },
    {
      "inputs": [],
      "name": "InvalidFee",
      "type": "error"
    },
    {
      "inputs": [],
      "name": "InvalidId",
      "type": "error"
    },
    {
      "inputs": [],
      "name": "InvalidK",
      "type": "error"
    },
    {
      "inputs": [],
      "name": "InvalidMove",
      "type": "error"
    },
    {
      "inputs": [],
      "name": "InvalidSize",
      "type": "error"
    },
    {
      "inputs": [],
      "name": "InvalidTimeout",
      "type": "error"
    },
    {
      "inputs": [],
      "name": "InvalidUser",
      "type": "error"
    },
    {
      "inputs": [],
      "name": "NoReward",
      "type": "error"
    },
    {
      "inputs": [],
      "name": "NotActive",
      "type": "error"
    },
    {
      "inputs": [],
      "name": "NotAdmin",
      "type": "error"
    },
    {
      "inputs": [],
      "name": "NotFinished",
      "type": "error"
    },
    {
      "inputs": [],
      "name": "NotReg",
      "type": "error"
    },
    {
      "inputs": [],
      "name": "NotTurn",
      "type": "error"
    },
    {
      "inputs": [],
      "name": "NotWinner",
      "type": "error"
    },
    {
      "inputs": [],
      "name": "Occupied",
      "type": "error"
    },
    {
      "inputs": [
        {
          "internalType": "address",
          "name": "owner",
          "type": "address"
        }
      ],
      "name": "OwnableInvalidOwner",
      "type": "error"
    },
    {
      "inputs": [
        {
          "internalType": "address",
          "name": "account",
          "type": "address"
        }
      ],
      "name": "OwnableUnauthorizedAccount",
      "type": "error"
    },
    {
      "inputs": [],
      "name": "ReentrancyGuardReentrantCall",
      "type": "error"
    },
    {
      "inputs": [],
      "name": "SelfChallenge",
      "type": "error"
    },
    {
      "inputs": [],
      "name": "SelfPlay",
      "type": "error"
    },
    {
      "inputs": [],
      "name": "Started",
      "type": "error"
    },
    {
      "inputs": [],
      "name": "Timeout",
      "type": "error"
    },
    {
      "inputs": [],
      "name": "TokenNotSup",
      "type": "error"
    },
    {
      "inputs": [],
      "name": "TransferFailed",
      "type": "error"
    },
    {
      "inputs": [],
      "name": "Unauthorized",
      "type": "error"
    },
    {
      "inputs": [],
      "name": "UsernameTaken",
      "type": "error"
    },
    {
      "anonymous": false,
      "inputs": [
        {
          "indexed": true,
          "internalType": "address",
          "name": "admin",
          "type": "address"
        }
      ],
      "name": "AdminAdded",
      "type": "event"
    },
    {
      "anonymous": false,
      "inputs": [
        {
          "indexed": true,
          "internalType": "address",
          "name": "admin",
          "type": "address"
        }
      ],
      "name": "AdminRemoved",
      "type": "event"
    },
    {
      "anonymous": false,
      "inputs": [
        {
          "indexed": true,
          "internalType": "uint256",
          "name": "challengeId",
          "type": "uint256"
        },
        {
          "indexed": true,
          "internalType": "uint256",
          "name": "gameId",
          "type": "uint256"
        }
      ],
      "name": "ChallengeAccepted",
      "type": "event"
    },
    {
      "anonymous": false,
      "inputs": [
        {
          "indexed": true,
          "internalType": "uint256",
          "name": "challengeId",
          "type": "uint256"
        },
        {
          "indexed": true,
          "internalType": "address",
          "name": "challenger",
          "type": "address"
        },
        {
          "indexed": true,
          "internalType": "address",
          "name": "challenged",
          "type": "address"
        },
        {
          "indexed": false,
          "internalType": "uint256",
          "name": "betAmount",
          "type": "uint256"
        }
      ],
      "name": "ChallengeCreated",
      "type": "event"
    },
    {
      "anonymous": false,
      "inputs": [
        {
          "indexed": true,
          "internalType": "uint256",
          "name": "gameId",
          "type": "uint256"
        },
        {
          "indexed": true,
          "internalType": "address",
          "name": "playerOne",
          "type": "address"
        },
        {
          "indexed": false,
          "internalType": "uint256",
          "name": "betAmount",
          "type": "uint256"
        },
        {
          "indexed": false,
          "internalType": "uint8",
          "name": "moveIndex",
          "type": "uint8"
        },
        {
          "indexed": false,
          "internalType": "address",
          "name": "tokenAddress",
          "type": "address"
        }
      ],
      "name": "GameCreated",
      "type": "event"
    },
    {
      "anonymous": false,
      "inputs": [
        {
          "indexed": true,
          "internalType": "uint256",
          "name": "gameId",
          "type": "uint256"
        },
        {
          "indexed": true,
          "internalType": "address",
          "name": "winner",
          "type": "address"
        }
      ],
      "name": "GameForfeited",
      "type": "event"
    },
    {
      "anonymous": false,
      "inputs": [
        {
          "indexed": true,
          "internalType": "uint256",
          "name": "gameId",
          "type": "uint256"
        },
        {
          "indexed": true,
          "internalType": "address",
          "name": "playerTwo",
          "type": "address"
        },
        {
          "indexed": false,
          "internalType": "uint8",
          "name": "moveIndex",
          "type": "uint8"
        }
      ],
      "name": "GameJoined",
      "type": "event"
    },
    {
      "anonymous": false,
      "inputs": [
        {
          "indexed": true,
          "internalType": "uint256",
          "name": "gameId",
          "type": "uint256"
        },
        {
          "indexed": true,
          "internalType": "address",
          "name": "winner",
          "type": "address"
        },
        {
          "indexed": false,
          "internalType": "uint256",
          "name": "payout",
          "type": "uint256"
        }
      ],
      "name": "GameWon",
      "type": "event"
    },
    {
      "anonymous": false,
      "inputs": [
        {
          "indexed": false,
          "internalType": "uint256",
          "name": "newKFactor",
          "type": "uint256"
        }
      ],
      "name": "KFactorUpdated",
      "type": "event"
    },
    {
      "anonymous": false,
      "inputs": [
        {
          "indexed": true,
          "internalType": "uint256",
          "name": "gameId",
          "type": "uint256"
        },
        {
          "indexed": true,
          "internalType": "address",
          "name": "player",
          "type": "address"
        },
        {
          "indexed": false,
          "internalType": "uint8",
          "name": "moveIndex",
          "type": "uint8"
        }
      ],
      "name": "MovePlayed",
      "type": "event"
    },
    {
      "anonymous": false,
      "inputs": [
        {
          "indexed": true,
          "internalType": "address",
          "name": "previousOwner",
          "type": "address"
        },
        {
          "indexed": true,
          "internalType": "address",
          "name": "newOwner",
          "type": "address"
        }
      ],
      "name": "OwnershipTransferred",
      "type": "event"
    },
    {
      "anonymous": false,
      "inputs": [
        {
          "indexed": false,
          "internalType": "address",
          "name": "account",
          "type": "address"
        }
      ],
      "name": "Paused",
      "type": "event"
    },
    {
      "anonymous": false,
      "inputs": [
        {
          "indexed": false,
          "internalType": "uint256",
          "name": "newFeePercent",
          "type": "uint256"
        }
      ],
      "name": "PlatformFeeUpdated",
      "type": "event"
    },
    {
      "anonymous": false,
      "inputs": [
        {
          "indexed": true,
          "internalType": "address",
          "name": "player",
          "type": "address"
        },
        {
          "indexed": false,
          "internalType": "string",
          "name": "username",
          "type": "string"
        }
      ],
      "name": "PlayerRegistered",
      "type": "event"
    },
    {
      "anonymous": false,
      "inputs": [
        {
          "indexed": true,
          "internalType": "uint256",
          "name": "gameId",
          "type": "uint256"
        },
        {
          "indexed": true,
          "internalType": "address",
          "name": "winner",
          "type": "address"
        },
        {
          "indexed": false,
          "internalType": "uint256",
          "name": "amount",
          "type": "uint256"
        }
      ],
      "name": "RewardClaimed",
      "type": "event"
    },
    {
      "anonymous": false,
      "inputs": [
        {
          "indexed": false,
          "internalType": "uint256",
          "name": "newTimeout",
          "type": "uint256"
        }
      ],
      "name": "TimeoutUpdated",
      "type": "event"
    },
    {
      "anonymous": false,
      "inputs": [
        {
          "indexed": true,
          "internalType": "address",
          "name": "token",
          "type": "address"
        },
        {
          "indexed": false,
          "internalType": "bool",
          "name": "supported",
          "type": "bool"
        }
      ],
      "name": "TokenSupported",
      "type": "event"
    },
    {
      "anonymous": false,
      "inputs": [
        {
          "indexed": false,
          "internalType": "address",
          "name": "account",
          "type": "address"
        }
      ],
      "name": "Unpaused",
      "type": "event"
    },
    {
      "inputs": [],
      "name": "LEADERBOARD_SIZE",
      "outputs": [
        {
          "internalType": "uint256",
          "name": "",
          "type": "uint256"
        }
      ],
      "stateMutability": "view",
      "type": "function"
    },
    {
      "inputs": [
        {
          "internalType": "uint256",
          "name": "challengeId",
          "type": "uint256"
        },
        {
          "internalType": "uint8",
          "name": "moveIndex",
          "type": "uint8"
        }
      ],
      "name": "acceptChallenge",
      "outputs": [],
      "stateMutability": "payable",
      "type": "function"
    },
    {
      "inputs": [
        {
          "internalType": "address",
          "name": "admin",
          "type": "address"
        }
      ],
      "name": "addAdmin",
      "outputs": [],
      "stateMutability": "nonpayable",
      "type": "function"
    },
    {
      "inputs": [
        {
          "internalType": "address",
          "name": "",
          "type": "address"
        }
      ],
      "name": "admins",
      "outputs": [
        {
          "internalType": "bool",
          "name": "",
          "type": "bool"
        }
      ],
      "stateMutability": "view",
      "type": "function"
    },
    {
      "inputs": [],
      "name": "challengeCounter",
      "outputs": [
        {
          "internalType": "uint256",
          "name": "",
          "type": "uint256"
        }
      ],
      "stateMutability": "view",
      "type": "function"
    },
    {
      "inputs": [
        {
          "internalType": "uint256",
          "name": "",
          "type": "uint256"
        }
      ],
      "name": "challenges",
      "outputs": [
        {
          "internalType": "address",
          "name": "challenger",
          "type": "address"
        },
        {
          "internalType": "string",
          "name": "challengerUsername",
          "type": "string"
        },
        {
          "internalType": "address",
          "name": "challenged",
          "type": "address"
        },
        {
          "internalType": "string",
          "name": "challengedUsername",
          "type": "string"
        },
        {
          "internalType": "uint256",
          "name": "betAmount",
          "type": "uint256"
        },
        {
          "internalType": "address",
          "name": "tokenAddress",
          "type": "address"
        },
        {
          "internalType": "uint8",
          "name": "boardSize",
          "type": "uint8"
        },
        {
          "internalType": "uint256",
          "name": "timestamp",
          "type": "uint256"
        },
        {
          "internalType": "bool",
          "name": "accepted",
          "type": "bool"
        },
        {
          "internalType": "uint256",
          "name": "gameId",
          "type": "uint256"
        }
      ],
      "stateMutability": "view",
      "type": "function"
    },
    {
      "inputs": [
        {
          "internalType": "uint256",
          "name": "gameId",
          "type": "uint256"
        }
      ],
      "name": "claimReward",
      "outputs": [],
      "stateMutability": "nonpayable",
      "type": "function"
    },
    {
      "inputs": [
        {
          "internalType": "uint256",
          "name": "",
          "type": "uint256"
        }
      ],
      "name": "claimableRewards",
      "outputs": [
        {
          "internalType": "uint256",
          "name": "",
          "type": "uint256"
        }
      ],
      "stateMutability": "view",
      "type": "function"
    },
    {
      "inputs": [
        {
          "internalType": "address",
          "name": "challenged",
          "type": "address"
        },
        {
          "internalType": "uint256",
          "name": "betAmount",
          "type": "uint256"
        },
        {
          "internalType": "address",
          "name": "tokenAddress",
          "type": "address"
        },
        {
          "internalType": "uint8",
          "name": "boardSize",
          "type": "uint8"
        }
      ],
      "name": "createChallenge",
      "outputs": [],
      "stateMutability": "payable",
      "type": "function"
    },
    {
      "inputs": [
        {
          "internalType": "uint256",
          "name": "betAmount",
          "type": "uint256"
        },
        {
          "internalType": "uint8",
          "name": "moveIndex",
          "type": "uint8"
        },
        {
          "internalType": "address",
          "name": "tokenAddress",
          "type": "address"
        },
        {
          "internalType": "uint8",
          "name": "boardSize",
          "type": "uint8"
        }
      ],
      "name": "createGame",
      "outputs": [],
      "stateMutability": "payable",
      "type": "function"
    },
    {
      "inputs": [],
      "name": "decrementCounter",
      "outputs": [],
      "stateMutability": "nonpayable",
      "type": "function"
    },
    {
      "inputs": [
        {
          "internalType": "uint256",
          "name": "gameId",
          "type": "uint256"
        }
      ],
      "name": "forfeitGame",
      "outputs": [],
      "stateMutability": "nonpayable",
      "type": "function"
    },
    {
      "inputs": [
        {
          "internalType": "uint256",
          "name": "",
          "type": "uint256"
        },
        {
          "internalType": "uint256",
          "name": "",
          "type": "uint256"
        }
      ],
      "name": "gameBoards",
      "outputs": [
        {
          "internalType": "uint8",
          "name": "",
          "type": "uint8"
        }
      ],
      "stateMutability": "view",
      "type": "function"
    },
    {
      "inputs": [
        {
          "internalType": "uint256",
          "name": "",
          "type": "uint256"
        }
      ],
      "name": "games",
      "outputs": [
        {
          "internalType": "address",
          "name": "playerOne",
          "type": "address"
        },
        {
          "internalType": "address",
          "name": "playerTwo",
          "type": "address"
        },
        {
          "internalType": "uint256",
          "name": "betAmount",
          "type": "uint256"
        },
        {
          "internalType": "address",
          "name": "tokenAddress",
          "type": "address"
        },
        {
          "internalType": "uint8",
          "name": "boardSize",
          "type": "uint8"
        },
        {
          "internalType": "bool",
          "name": "isPlayerOneTurn",
          "type": "bool"
        },
        {
          "internalType": "address",
          "name": "winner",
          "type": "address"
        },
        {
          "internalType": "uint64",
          "name": "lastMoveTimestamp",
          "type": "uint64"
        },
        {
          "internalType": "enum BlOcXTacToe.GameStatus",
          "name": "status",
          "type": "uint8"
        }
      ],
      "stateMutability": "view",
      "type": "function"
    },
    {
      "inputs": [
        {
          "internalType": "uint256",
          "name": "challengeId",
          "type": "uint256"
        }
      ],
      "name": "getChallenge",
      "outputs": [
        {
          "components": [
            {
              "internalType": "address",
              "name": "challenger",
              "type": "address"
            },
            {
              "internalType": "string",
              "name": "challengerUsername",
              "type": "string"
            },
            {
              "internalType": "address",
              "name": "challenged",
              "type": "address"
            },
            {
              "internalType": "string",
              "name": "challengedUsername",
              "type": "string"
            },
            {
              "internalType": "uint256",
              "name": "betAmount",
              "type": "uint256"
            },
            {
              "internalType": "address",
              "name": "tokenAddress",
              "type": "address"
            },
            {
              "internalType": "uint8",
              "name": "boardSize",
              "type": "uint8"
            },
            {
              "internalType": "uint256",
              "name": "timestamp",
              "type": "uint256"
            },
            {
              "internalType": "bool",
              "name": "accepted",
              "type": "bool"
            },
            {
              "internalType": "uint256",
              "name": "gameId",
              "type": "uint256"
            }
          ],
          "internalType": "struct BlOcXTacToe.Challenge",
          "name": "",
          "type": "tuple"
        }
      ],
      "stateMutability": "view",
      "type": "function"
    },
    {
      "inputs": [],
      "name": "getCounter",
      "outputs": [
        {
          "internalType": "uint256",
          "name": "",
          "type": "uint256"
        }
      ],
      "stateMutability": "view",
      "type": "function"
    },
    {
      "inputs": [
        {
          "internalType": "uint256",
          "name": "gameId",
          "type": "uint256"
        }
      ],
      "name": "getGame",
      "outputs": [
        {
          "components": [
            {
              "internalType": "address",
              "name": "playerOne",
              "type": "address"
            },
            {
              "internalType": "address",
              "name": "playerTwo",
              "type": "address"
            },
            {
              "internalType": "uint256",
              "name": "betAmount",
              "type": "uint256"
            },
            {
              "internalType": "address",
              "name": "tokenAddress",
              "type": "address"
            },
            {
              "internalType": "uint8",
              "name": "boardSize",
              "type": "uint8"
            },
            {
              "internalType": "bool",
              "name": "isPlayerOneTurn",
              "type": "bool"
            },
            {
              "internalType": "address",
              "name": "winner",
              "type": "address"
            },
            {
              "internalType": "uint64",
              "name": "lastMoveTimestamp",
              "type": "uint64"
            },
            {
              "internalType": "enum BlOcXTacToe.GameStatus",
              "name": "status",
              "type": "uint8"
            }
          ],
          "internalType": "struct BlOcXTacToe.Game",
          "name": "",
          "type": "tuple"
        }
      ],
      "stateMutability": "view",
      "type": "function"
    },
    {
      "inputs": [],
      "name": "getLatestGameId",
      "outputs": [
        {
          "internalType": "uint256",
          "name": "",
          "type": "uint256"
        }
      ],
      "stateMutability": "view",
      "type": "function"
    },
    {
      "inputs": [
        {
          "internalType": "uint256",
          "name": "limit",
          "type": "uint256"
        }
      ],
      "name": "getLeaderboard",
      "outputs": [
        {
          "components": [
            {
              "internalType": "address",
              "name": "player",
              "type": "address"
            },
            {
              "internalType": "string",
              "name": "username",
              "type": "string"
            },
            {
              "internalType": "uint256",
              "name": "rating",
              "type": "uint256"
            },
            {
              "internalType": "uint256",
              "name": "wins",
              "type": "uint256"
            }
          ],
          "internalType": "struct BlOcXTacToe.LeaderboardEntry[]",
          "name": "",
          "type": "tuple[]"
        }
      ],
      "stateMutability": "view",
      "type": "function"
    },
    {
      "inputs": [
        {
          "internalType": "address",
          "name": "player",
          "type": "address"
        }
      ],
      "name": "getPlayer",
      "outputs": [
        {
          "components": [
            {
              "internalType": "string",
              "name": "username",
              "type": "string"
            },
            {
              "internalType": "uint256",
              "name": "wins",
              "type": "uint256"
            },
            {
              "internalType": "uint256",
              "name": "losses",
              "type": "uint256"
            },
            {
              "internalType": "uint256",
              "name": "draws",
              "type": "uint256"
            },
            {
              "internalType": "uint256",
              "name": "totalGames",
              "type": "uint256"
            },
            {
              "internalType": "uint256",
              "name": "rating",
              "type": "uint256"
            },
            {
              "internalType": "bool",
              "name": "registered",
              "type": "bool"
            }
          ],
          "internalType": "struct BlOcXTacToe.Player",
          "name": "",
          "type": "tuple"
        }
      ],
      "stateMutability": "view",
      "type": "function"
    },
    {
      "inputs": [
        {
          "internalType": "string",
          "name": "username",
          "type": "string"
        }
      ],
      "name": "getPlayerByUsername",
      "outputs": [
        {
          "internalType": "address",
          "name": "",
          "type": "address"
        },
        {
          "components": [
            {
              "internalType": "string",
              "name": "username",
              "type": "string"
            },
            {
              "internalType": "uint256",
              "name": "wins",
              "type": "uint256"
            },
            {
              "internalType": "uint256",
              "name": "losses",
              "type": "uint256"
            },
            {
              "internalType": "uint256",
              "name": "draws",
              "type": "uint256"
            },
            {
              "internalType": "uint256",
              "name": "totalGames",
              "type": "uint256"
            },
            {
              "internalType": "uint256",
              "name": "rating",
              "type": "uint256"
            },
            {
              "internalType": "bool",
              "name": "registered",
              "type": "bool"
            }
          ],
          "internalType": "struct BlOcXTacToe.Player",
          "name": "",
          "type": "tuple"
        }
      ],
      "stateMutability": "view",
      "type": "function"
    },
    {
      "inputs": [
        {
          "internalType": "address",
          "name": "player",
          "type": "address"
        }
      ],
      "name": "getPlayerChallenges",
      "outputs": [
        {
          "internalType": "uint256[]",
          "name": "",
          "type": "uint256[]"
        }
      ],
      "stateMutability": "view",
      "type": "function"
    },
    {
      "inputs": [],
      "name": "getSupportedTokens",
      "outputs": [
        {
          "internalType": "address[]",
          "name": "",
          "type": "address[]"
        }
      ],
      "stateMutability": "view",
      "type": "function"
    },
    {
      "inputs": [
        {
          "internalType": "uint256",
          "name": "gameId",
          "type": "uint256"
        }
      ],
      "name": "getTimeRemaining",
      "outputs": [
        {
          "internalType": "uint256",
          "name": "",
          "type": "uint256"
        }
      ],
      "stateMutability": "view",
      "type": "function"
    },
    {
      "inputs": [
        {
          "internalType": "address",
          "name": "token",
          "type": "address"
        }
      ],
      "name": "getTokenName",
      "outputs": [
        {
          "internalType": "string",
          "name": "",
          "type": "string"
        }
      ],
      "stateMutability": "view",
      "type": "function"
    },
    {
      "inputs": [],
      "name": "incrementCounter",
      "outputs": [],
      "stateMutability": "nonpayable",
      "type": "function"
    },
    {
      "inputs": [
        {
          "internalType": "address",
          "name": "token",
          "type": "address"
        }
      ],
      "name": "isTokenSupported",
      "outputs": [
        {
          "internalType": "bool",
          "name": "",
          "type": "bool"
        }
      ],
      "stateMutability": "view",
      "type": "function"
    },
    {
      "inputs": [
        {
          "internalType": "uint256",
          "name": "gameId",
          "type": "uint256"
        },
        {
          "internalType": "uint8",
          "name": "moveIndex",
          "type": "uint8"
        }
      ],
      "name": "joinGame",
      "outputs": [],
      "stateMutability": "payable",
      "type": "function"
    },
    {
      "inputs": [],
      "name": "kFactor",
      "outputs": [
        {
          "internalType": "uint256",
          "name": "",
          "type": "uint256"
        }
      ],
      "stateMutability": "view",
      "type": "function"
    },
    {
      "inputs": [
        {
          "internalType": "uint256",
          "name": "",
          "type": "uint256"
        }
      ],
      "name": "leaderboard",
      "outputs": [
        {
          "internalType": "address",
          "name": "player",
          "type": "address"
        },
        {
          "internalType": "string",
          "name": "username",
          "type": "string"
        },
        {
          "internalType": "uint256",
          "name": "rating",
          "type": "uint256"
        },
        {
          "internalType": "uint256",
          "name": "wins",
          "type": "uint256"
        }
      ],
      "stateMutability": "view",
      "type": "function"
    },
    {
      "inputs": [],
      "name": "moveTimeout",
      "outputs": [
        {
          "internalType": "uint256",
          "name": "",
          "type": "uint256"
        }
      ],
      "stateMutability": "view",
      "type": "function"
    },
    {
      "inputs": [],
      "name": "owner",
      "outputs": [
        {
          "internalType": "address",
          "name": "",
          "type": "address"
        }
      ],
      "stateMutability": "view",
      "type": "function"
    },
    {
      "inputs": [],
      "name": "pause",
      "outputs": [],
      "stateMutability": "nonpayable",
      "type": "function"
    },
    {
      "inputs": [],
      "name": "paused",
      "outputs": [
        {
          "internalType": "bool",
          "name": "",
          "type": "bool"
        }
      ],
      "stateMutability": "view",
      "type": "function"
    },
    {
      "inputs": [],
      "name": "platformFeePercent",
      "outputs": [
        {
          "internalType": "uint256",
          "name": "",
          "type": "uint256"
        }
      ],
      "stateMutability": "view",
      "type": "function"
    },
    {
      "inputs": [],
      "name": "platformFeeRecipient",
      "outputs": [
        {
          "internalType": "address",
          "name": "",
          "type": "address"
        }
      ],
      "stateMutability": "view",
      "type": "function"
    },
    {
      "inputs": [
        {
          "internalType": "uint256",
          "name": "gameId",
          "type": "uint256"
        },
        {
          "internalType": "uint8",
          "name": "moveIndex",
          "type": "uint8"
        }
      ],
      "name": "play",
      "outputs": [],
      "stateMutability": "nonpayable",
      "type": "function"
    },
    {
      "inputs": [
        {
          "internalType": "address",
          "name": "",
          "type": "address"
        },
        {
          "internalType": "uint256",
          "name": "",
          "type": "uint256"
        }
      ],
      "name": "playerChallenges",
      "outputs": [
        {
          "internalType": "uint256",
          "name": "",
          "type": "uint256"
        }
      ],
      "stateMutability": "view",
      "type": "function"
    },
    {
      "inputs": [
        {
          "internalType": "address",
          "name": "",
          "type": "address"
        }
      ],
      "name": "players",
      "outputs": [
        {
          "internalType": "string",
          "name": "username",
          "type": "string"
        },
        {
          "internalType": "uint256",
          "name": "wins",
          "type": "uint256"
        },
        {
          "internalType": "uint256",
          "name": "losses",
          "type": "uint256"
        },
        {
          "internalType": "uint256",
          "name": "draws",
          "type": "uint256"
        },
        {
          "internalType": "uint256",
          "name": "totalGames",
          "type": "uint256"
        },
        {
          "internalType": "uint256",
          "name": "rating",
          "type": "uint256"
        },
        {
          "internalType": "bool",
          "name": "registered",
          "type": "bool"
        }
      ],
      "stateMutability": "view",
      "type": "function"
    },
    {
      "inputs": [
        {
          "internalType": "string",
          "name": "username",
          "type": "string"
        }
      ],
      "name": "registerPlayer",
      "outputs": [],
      "stateMutability": "nonpayable",
      "type": "function"
    },
    {
      "inputs": [
        {
          "internalType": "address",
          "name": "admin",
          "type": "address"
        }
      ],
      "name": "removeAdmin",
      "outputs": [],
      "stateMutability": "nonpayable",
      "type": "function"
    },
    {
      "inputs": [],
      "name": "renounceOwnership",
      "outputs": [],
      "stateMutability": "nonpayable",
      "type": "function"
    },
    {
      "inputs": [
        {
          "internalType": "uint256",
          "name": "",
          "type": "uint256"
        }
      ],
      "name": "rewardClaimed",
      "outputs": [
        {
          "internalType": "bool",
          "name": "",
          "type": "bool"
        }
      ],
      "stateMutability": "view",
      "type": "function"
    },
    {
      "inputs": [
        {
          "internalType": "uint256",
          "name": "newKFactor",
          "type": "uint256"
        }
      ],
      "name": "setKFactor",
      "outputs": [],
      "stateMutability": "nonpayable",
      "type": "function"
    },
    {
      "inputs": [
        {
          "internalType": "uint256",
          "name": "newTimeout",
          "type": "uint256"
        }
      ],
      "name": "setMoveTimeout",
      "outputs": [],
      "stateMutability": "nonpayable",
      "type": "function"
    },
    {
      "inputs": [
        {
          "internalType": "uint256",
          "name": "newFeePercent",
          "type": "uint256"
        }
      ],
      "name": "setPlatformFee",
      "outputs": [],
      "stateMutability": "nonpayable",
      "type": "function"
    },
    {
      "inputs": [
        {
          "internalType": "address",
          "name": "recipient",
          "type": "address"
        }
      ],
      "name": "setPlatformFeeRecipient",
      "outputs": [],
      "stateMutability": "nonpayable",
      "type": "function"
    },
    {
      "inputs": [
        {
          "internalType": "address",
          "name": "token",
          "type": "address"
        },
        {
          "internalType": "bool",
          "name": "supported",
          "type": "bool"
        },
        {
          "internalType": "string",
          "name": "tokenName",
          "type": "string"
        }
      ],
      "name": "setSupportedToken",
      "outputs": [],
      "stateMutability": "nonpayable",
      "type": "function"
    },
    {
      "inputs": [
        {
          "internalType": "address",
          "name": "",
          "type": "address"
        }
      ],
      "name": "supportedTokens",
      "outputs": [
        {
          "internalType": "bool",
          "name": "",
          "type": "bool"
        }
      ],
      "stateMutability": "view",
      "type": "function"
    },
    {
      "inputs": [
        {
          "internalType": "uint256",
          "name": "",
          "type": "uint256"
        }
      ],
      "name": "supportedTokensList",
      "outputs": [
        {
          "internalType": "address",
          "name": "",
          "type": "address"
        }
      ],
      "stateMutability": "view",
      "type": "function"
    },
    {
      "inputs": [
        {
          "internalType": "address",
          "name": "",
          "type": "address"
        }
      ],
      "name": "tokenNames",
      "outputs": [
        {
          "internalType": "string",
          "name": "",
          "type": "string"
        }
      ],
      "stateMutability": "view",
      "type": "function"
    },
    {
      "inputs": [
        {
          "internalType": "address",
          "name": "newOwner",
          "type": "address"
        }
      ],
      "name": "transferOwnership",
      "outputs": [],
      "stateMutability": "nonpayable",
      "type": "function"
    },
    {
      "inputs": [],
      "name": "unpause",
      "outputs": [],
      "stateMutability": "nonpayable",
      "type": "function"
    },
    {
      "inputs": [
        {
          "internalType": "string",
          "name": "",
          "type": "string"
        }
      ],
      "name": "usernameToAddress",
      "outputs": [
        {
          "internalType": "address",
          "name": "",
          "type": "address"
        }
      ],
      "stateMutability": "view",
      "type": "function"
    }
  ],
  "bytecode": "0x60806040523480156200001157600080fd5b50600160005533806200003e57604051631e4fbdf760e01b81526000600482015260240160405180910390fd5b62000049816200014e565b506201518060025560006003818155600480546001600160a01b0319163390811790915560646005558252600660209081526040808420805460ff1990811660019081179092557f6d5257204ebe7d88fd91ae87941cb2dd9d8062b64ae5a2bd2d28ec40b9fbf6df8054909116909117905580518082019091529182526208aa8960eb1b8282015291805260089091527f5eff886ea0ce6ca488a3d6e336d6c0f75f46d19b42c06ce5ee98e42c96d256c7906200010790826200024d565b50600980546001810182556000919091527f6e1540171b6c0c960b71a7020d9f60077f6af931a8bbf590da0223dacf75c7af0180546001600160a01b031916905562000319565b600180546001600160a01b03838116610100818102610100600160a81b031985161790945560405193909204169182907f8be0079c531659141344cd1fd0a4f28419497f9722a3daafe3b4186f6b6457e090600090a35050565b634e487b7160e01b600052604160045260246000fd5b600181811c90821680620001d357607f821691505b602082108103620001f457634e487b7160e01b600052602260045260246000fd5b50919050565b601f8211156200024857600081815260208120601f850160051c81016020861015620002235750805b601f850160051c820191505b8181101562000244578281556001016200022f565b5050505b505050565b81516001600160401b03811115620002695762000269620001a8565b62000281816200027a8454620001be565b84620001fa565b602080601f831160018114620002b95760008415620002a05750858301515b600019600386901b1c1916600185901b17855562000244565b600085815260208120601f198616915b82811015620002ea57888601518255948401946001909101908401620002c9565b5085821015620003095787850151600019600388901b60f8161c191681555b5050505050600190811b01905550565b6157f080620003296000396000f3fe6080604052600436106103355760003560e01c80638ada066e116101ab578063bf368399116100f7578063eb13554f11610095578063f5c5ad831161006f578063f5c5ad8314610ab7578063f7fed02c14610acc578063f825f14314610ae2578063fdb894ac14610b2357600080fd5b8063eb13554f14610a4a578063eb884d5014610a6a578063f2fde38b14610a9757600080fd5b8063d3c7c2c7116100d1578063d3c7c2c7146109c2578063dde2307a146109e4578063e2eb41ff146109f7578063ea0dc91214610a2a57600080fd5b8063bf3683991461096c578063ca2ad0aa1461099c578063ca6649c5146109af57600080fd5b806398be22f711610164578063a8fc75e11161013e578063a8fc75e1146108de578063ae169a50146108fe578063b307f52a1461091e578063b3446f851461094c57600080fd5b806398be22f714610864578063a2f77bcc14610884578063a34b46fe146108b157600080fd5b80638ada066e146107935780638c639a85146107a85780638cd42991146107be5780638da5cb5b146107de5780638f1d3776146108015780639835fc7e1461083757600080fd5b80634f085f421161028557806368c4ac2611610223578063715018a6116101fd578063715018a61461071057806375151b63146107255780638456cb591461075e5780638a062ab71461077357600080fd5b806368c4ac26146106935780636f0fccab146106c357806370480275146106f057600080fd5b80635c975abb1161025f5780635c975abb146105f35780635cd7692e1461060b57806363c918771461062b57806368825a391461066357600080fd5b80634f085f421461059c5780635b34b966146105b15780635c12cd4b146105c657600080fd5b8063181c5e15116102f2578063342e4cbf116102cc578063342e4cbf1461051c57806339053ca6146105325780633f4ba83a14610547578063429b62e51461055c57600080fd5b8063181c5e15146104825780631871e243146104cf5780631bdd4b74146104ef57600080fd5b806303380d3d1461033a5780630d7905fa1461036d5780630d836cd91461038f578063117a5b90146103a257806312e8e2c3146104425780631785f53c14610462575b600080fd5b34801561034657600080fd5b5061035a610355366004614afe565b610b39565b6040519081526020015b60405180910390f35b34801561037957600080fd5b5061038d610388366004614b28565b610b6a565b005b61038d61039d366004614b52565b610c33565b3480156103ae57600080fd5b5061042d6103bd366004614b28565b601160205260009081526040902080546001820154600283015460038401546004909401546001600160a01b039384169492841693919282811692600160a01b80830460ff90811694600160a81b909404811693928316929182046001600160401b031691600160e01b90041689565b60405161036499989796959493929190614bd7565b34801561044e57600080fd5b5061038d61045d366004614b28565b61119c565b34801561046e57600080fd5b5061038d61047d366004614c43565b611254565b34801561048e57600080fd5b506104bd61049d366004614c65565b601060209081526000928352604080842090915290825290205460ff1681565b60405160ff9091168152602001610364565b3480156104db57600080fd5b5061038d6104ea366004614c43565b6112a5565b3480156104fb57600080fd5b5061050f61050a366004614b28565b61134e565b6040516103649190614ccd565b34801561052857600080fd5b5061035a60055481565b34801561053e57600080fd5b5060125461035a565b34801561055357600080fd5b5061038d611583565b34801561056857600080fd5b5061058c610577366004614c43565b60066020526000908152604090205460ff1681565b6040519015158152602001610364565b3480156105a857600080fd5b5061035a606481565b3480156105bd57600080fd5b5061038d611595565b3480156105d257600080fd5b506105e66105e1366004614c43565b6115ac565b6040516103649190614e06565b3480156105ff57600080fd5b5060015460ff1661058c565b34801561061757600080fd5b5061038d610626366004614e19565b6116ea565b34801561063757600080fd5b5061064b610646366004614b28565b611981565b6040516001600160a01b039091168152602001610364565b34801561066f57600080fd5b5061058c61067e366004614b28565b60146020526000908152604090205460ff1681565b34801561069f57600080fd5b5061058c6106ae366004614c43565b60076020526000908152604090205460ff1681565b3480156106cf57600080fd5b506106e36106de366004614c43565b6119ab565b6040516103649190614e45565b3480156106fc57600080fd5b5061038d61070b366004614c43565b611a57565b34801561071c57600080fd5b5061038d611aab565b34801561073157600080fd5b5061058c610740366004614c43565b6001600160a01b031660009081526007602052604090205460ff1690565b34801561076a57600080fd5b5061038d611abd565b34801561077f57600080fd5b5061038d61078e366004614b28565b611acd565b34801561079f57600080fd5b5060155461035a565b3480156107b457600080fd5b5061035a60035481565b3480156107ca57600080fd5b5061035a6107d9366004614b28565b611b8e565b3480156107ea57600080fd5b5060015461010090046001600160a01b031661064b565b34801561080d57600080fd5b5061082161081c366004614b28565b611c5e565b6040516103649a99989796959493929190614e58565b34801561084357600080fd5b5061035a610852366004614b28565b60136020526000908152604090205481565b34801561087057600080fd5b5061038d61087f366004614b28565b611dea565b34801561089057600080fd5b506108a461089f366004614b28565b61202c565b6040516103649190614ed7565b3480156108bd57600080fd5b506108d16108cc366004614b28565b61216e565b6040516103649190614f8a565b3480156108ea57600080fd5b506106e36108f9366004614c43565b612338565b34801561090a57600080fd5b5061038d610919366004614b28565b6123d2565b34801561092a57600080fd5b5061093e610939366004615061565b61258f565b6040516103649291906150a2565b34801561095857600080fd5b5061038d610967366004615061565b612701565b34801561097857600080fd5b5061098c610987366004614b28565b61290b565b60405161036494939291906150ce565b61038d6109aa366004614e19565b6129d9565b61038d6109bd366004614e19565b612d5c565b3480156109ce57600080fd5b506109d76130aa565b6040516103649190615105565b61038d6109f2366004615152565b61310c565b348015610a0357600080fd5b50610a17610a12366004614c43565b613448565b6040516103649796959493929190615186565b348015610a3657600080fd5b5061038d610a453660046151da565b613510565b348015610a5657600080fd5b5060045461064b906001600160a01b031681565b348015610a7657600080fd5b50610a8a610a85366004614c43565b6137e5565b604051610364919061523c565b348015610aa357600080fd5b5061038d610ab2366004614c43565b613850565b348015610ac357600080fd5b5061038d613890565b348015610ad857600080fd5b5061035a600e5481565b348015610aee57600080fd5b5061064b610afd36600461528a565b8051602081830181018051600b825292820191909301209152546001600160a01b031681565b348015610b2f57600080fd5b5061035a60025481565b600f6020528160005260406000208181548110610b5557600080fd5b90600052602060002001600091509150505481565b3360009081526006602052604090205460ff16158015610bac575060015461010090046001600160a01b03166001600160a01b0316336001600160a01b031614155b15610bca57604051637bfa4b9f60e01b815260040160405180910390fd5b801580610bd9575062093a8081115b15610bf757604051631ffb86f160e21b815260040160405180910390fd5b60028190556040518181527f1a1cd30e223035d872019b55a16a88e0fad18aac07397d463628bf771cc10b94906020015b60405180910390a150565b610c3b6138a0565b610c436138ca565b336000908152600a602052604090206006015460ff16610c765760405163424744c360e01b815260040160405180910390fd5b336001600160a01b03851603610c9f5760405163706cd38160e01b815260040160405180910390fd5b6001600160a01b038416610cc65760405163e481c26960e01b815260040160405180910390fd5b6001600160a01b0384166000908152600a602052604090206006015460ff16610d025760405163424744c360e01b815260040160405180910390fd5b82600003610d235760405163aa82224960e01b815260040160405180910390fd5b6001600160a01b03821660009081526007602052604090205460ff16610d5c57604051630c55eb0360e21b815260040160405180910390fd5b8060ff16600314158015610d7457508060ff16600514155b8015610d8457508060ff16600714155b15610da257604051630ffd11ad60e01b815260040160405180910390fd5b6001600160a01b038216610dd557823414610dd05760405163094b6dbb60e41b815260040160405180910390fd5b610e69565b3415610df45760405163094b6dbb60e41b815260040160405180910390fd5b6040516323b872dd60e01b81526001600160a01b038316906323b872dd90610e249033903090889060040161533a565b6020604051808303816000875af1158015610e43573d6000803e3d6000fd5b505050506040513d601f19601f82011682018060405250810190610e67919061535e565b505b600e805460009182610e7a83615391565b909155506040805161014081018252338082526000908152600a60209081529290208054939450909291830191610eb0906153aa565b80601f0160208091040260200160405190810160405280929190818152602001828054610edc906153aa565b8015610f295780601f10610efe57610100808354040283529160200191610f29565b820191906000526020600020905b815481529060010190602001808311610f0c57829003601f168201915b50505050508152602001866001600160a01b03168152602001600a6000886001600160a01b03166001600160a01b031681526020019081526020016000206000018054610f75906153aa565b80601f0160208091040260200160405190810160405280929190818152602001828054610fa1906153aa565b8015610fee5780601f10610fc357610100808354040283529160200191610fee565b820191906000526020600020905b815481529060010190602001808311610fd157829003601f168201915b505050918352505060208082018790526001600160a01b0386811660408085019190915260ff87166060850152426080850152600060a0850181905260c0909401849052858452600d8352909220835181546001600160a01b031916931692909217825582015160018201906110649082615439565b5060408201516002820180546001600160a01b0319166001600160a01b039092169190911790556060820151600382019061109f9082615439565b506080820151600482015560a082015160058201805460c085015160ff16600160a01b026001600160a81b03199091166001600160a01b039384161717905560e0830151600683015561010083015160078301805491151560ff1990921691909117905561012090920151600890910155336000818152600f6020908152604080832080546001818101835591855283852001879055948a16808452818420805496870181558452919092209093018490555183907fd2f7931a802085b3d0234d4c320ce7ee0041da96678ce2bf5c93e8d3d7e65f52906111839089815260200190565b60405180910390a4506111966001600055565b50505050565b3360009081526006602052604090205460ff161580156111de575060015461010090046001600160a01b03166001600160a01b0316336001600160a01b031614155b156111fc57604051637bfa4b9f60e01b815260040160405180910390fd5b6103e881111561121f576040516358d620b360e01b815260040160405180910390fd5b60038190556040518181527f45610d581145924dd7090a5017e5f2b1d6f42213bb2e95707ff86846bbfcb1ca90602001610c28565b61125c6138ee565b6001600160a01b038116600081815260066020526040808220805460ff19169055517fa3b62bc36326052d97ea62d63c3d60308ed4c3ea8ac079dd8499f1e9c4f80c0f9190a250565b3360009081526006602052604090205460ff161580156112e7575060015461010090046001600160a01b03166001600160a01b0316336001600160a01b031614155b1561130557604051637bfa4b9f60e01b815260040160405180910390fd5b6001600160a01b03811661132c5760405163e481c26960e01b815260040160405180910390fd5b600480546001600160a01b0319166001600160a01b0392909216919091179055565b6113c460405180610140016040528060006001600160a01b031681526020016060815260200160006001600160a01b03168152602001606081526020016000815260200160006001600160a01b03168152602001600060ff16815260200160008152602001600015158152602001600081525090565b6000828152600d60209081526040918290208251610140810190935280546001600160a01b031683526001810180549192840191611401906153aa565b80601f016020809104026020016040519081016040528092919081815260200182805461142d906153aa565b801561147a5780601f1061144f5761010080835404028352916020019161147a565b820191906000526020600020905b81548152906001019060200180831161145d57829003601f168201915b505050918352505060028201546001600160a01b031660208201526003820180546040909201916114aa906153aa565b80601f01602080910402602001604051908101604052809291908181526020018280546114d6906153aa565b80156115235780601f106114f857610100808354040283529160200191611523565b820191906000526020600020905b81548152906001019060200180831161150657829003601f168201915b50505091835250506004820154602082015260058201546001600160a01b038116604083015260ff600160a01b9091048116606083015260068301546080830152600783015416151560a082015260089091015460c09091015292915050565b61158b6138ee565b611593613921565b565b601580549060006115a583615391565b9190505550565b6115ee6040518060e001604052806060815260200160008152602001600081526020016000815260200160008152602001600081526020016000151581525090565b6001600160a01b0382166000908152600a602052604090819020815160e08101909252805482908290611620906153aa565b80601f016020809104026020016040519081016040528092919081815260200182805461164c906153aa565b80156116995780601f1061166e57610100808354040283529160200191611699565b820191906000526020600020905b81548152906001019060200180831161167c57829003601f168201915b505050918352505060018201546020820152600282015460408201526003820154606082015260048201546080820152600582015460a082015260069091015460ff16151560c09091015292915050565b6116f26138a0565b81601254811061171557604051631bf4348160e31b815260040160405180910390fd5b8260008082815260116020526040902060040154600160e01b900460ff16600281111561174457611744614b9f565b1461176257604051634065aaf160e11b815260040160405180910390fd5b61176a6138ca565b600084815260116020526040902060018101546001600160a01b03166117a357604051634065aaf160e11b815260040160405180910390fd5b60038101546000906117bf90600160a01b900460ff16806154f2565b9050808560ff16106117e4576040516321e08b4d60e21b815260040160405180910390fd5b600086815260106020908152604080832060ff808a1685529252909120541615611821576040516377b19ff960e01b815260040160405180910390fd5b6003820154600160a81b900460ff168015611846575081546001600160a01b03163314155b156118645760405163c6e1dd1d60e01b815260040160405180910390fd5b6003820154600160a81b900460ff1615801561188d575060018201546001600160a01b03163314155b156118ab5760405163c6e1dd1d60e01b815260040160405180910390fd5b6003820154600090600160a81b900460ff166118c85760026118cb565b60015b600088815260106020908152604080832060ff8b811680865291845293829020805460ff191686861617905560038801805460ff60a81b198116600160a81b9182900490961615029490941790935560048701805467ffffffffffffffff60a01b1916600160a01b426001600160401b031602179055519182529192503391899160008051602061579b833981519152910160405180910390a361196e87613973565b505050505061197d6001600055565b5050565b6009818154811061199157600080fd5b6000918252602090912001546001600160a01b0316905081565b6001600160a01b03811660009081526008602052604090208054606091906119d2906153aa565b80601f01602080910402602001604051908101604052809291908181526020018280546119fe906153aa565b8015611a4b5780601f10611a2057610100808354040283529160200191611a4b565b820191906000526020600020905b815481529060010190602001808311611a2e57829003601f168201915b50505050509050919050565b611a5f6138ee565b6001600160a01b038116600081815260066020526040808220805460ff19166001179055517f44d6d25963f097ad14f29f06854a01f575648a1ef82f30e562ccd3889717e3399190a250565b611ab36138ee565b6115936000613eba565b611ac56138ee565b611593613f14565b3360009081526006602052604090205460ff16158015611b0f575060015461010090046001600160a01b03166001600160a01b0316336001600160a01b031614155b15611b2d57604051637bfa4b9f60e01b815260040160405180910390fd5b801580611b3b57506103e881115b15611b5957604051632f62f0d960e21b815260040160405180910390fd5b60058190556040518181527f77f9f9fbe07bd3b672c0fcc2c8f1a3ff8d2e430df64a7bb09e3e1abff6b41d5290602001610c28565b6000816012548110611bb357604051631bf4348160e31b815260040160405180910390fd5b60008381526011602052604090206004810154600160a01b90046001600160401b03161580611c02575060006004820154600160e01b900460ff166002811115611bff57611bff614b9f565b14155b15611c11576000925050611c58565b6002546004820154600091611c3591600160a01b90046001600160401b031661550f565b9050804210611c4957600093505050611c58565b611c534282615522565b935050505b50919050565b600d60205260009081526040902080546001820180546001600160a01b039092169291611c8a906153aa565b80601f0160208091040260200160405190810160405280929190818152602001828054611cb6906153aa565b8015611d035780601f10611cd857610100808354040283529160200191611d03565b820191906000526020600020905b815481529060010190602001808311611ce657829003601f168201915b505050600284015460038501805494956001600160a01b03909216949193509150611d2d906153aa565b80601f0160208091040260200160405190810160405280929190818152602001828054611d59906153aa565b8015611da65780601f10611d7b57610100808354040283529160200191611da6565b820191906000526020600020905b815481529060010190602001808311611d8957829003601f168201915b5050506004840154600585015460068601546007870154600890970154959692956001600160a01b038316955060ff600160a01b909304831694509092909116908a565b611df26138a0565b806012548110611e1557604051631bf4348160e31b815260040160405180910390fd5b8160008082815260116020526040902060040154600160e01b900460ff166002811115611e4457611e44614b9f565b14611e6257604051634065aaf160e11b815260040160405180910390fd5b600083815260116020526040902060018101546001600160a01b0316611e9b57604051634065aaf160e11b815260040160405180910390fd5b6002546004820154611ebd9190600160a01b90046001600160401b031661550f565b4211611edc5760405163055e18ff60e31b815260040160405180910390fd5b6003810154600090600160a81b900460ff16611f025781546001600160a01b0316611f11565b60018201546001600160a01b03165b6004830180546001600160a01b038316600168ff000000000000000160a01b031990911617600160e11b179055600280840154919250600091611f53916154f2565b9050600061271060035483611f6891906154f2565b611f729190615535565b90506000611f808284615522565b600089815260136020526040902081905590508115611fb9576004546003860154611fb9916001600160a01b0390811691859116613f4f565b84546001860154611fd9916001600160a01b039081169116866000614066565b611fe284614208565b6040516001600160a01b0385169089907fa123e0ae628b772d6c016e95237ce73fbf7959306ac89b11be3543188f2885f690600090a3505050505050506120296001600055565b50565b6120796040805161012081018252600080825260208201819052918101829052606081018290526080810182905260a0810182905260c0810182905260e081018290529061010082015290565b81601254811061209c57604051631bf4348160e31b815260040160405180910390fd5b60008381526011602090815260409182902082516101208101845281546001600160a01b03908116825260018301548116938201939093526002808301549482019490945260038201548084166060830152600160a01b80820460ff9081166080850152600160a81b9092048216151560a0840152600484015494851660c084015284046001600160401b031660e083015290939192610100850192600160e01b9091049091169081111561215357612153614b9f565b600281111561216457612164614b9f565b9052509392505050565b6060600082600c80549050106121845782612188565b600c545b90506000816001600160401b038111156121a4576121a4615274565b60405190808252806020026020018201604052801561220957816020015b6121f6604051806080016040528060006001600160a01b031681526020016060815260200160008152602001600081525090565b8152602001906001900390816121c25790505b50905060005b8281101561233057600c818154811061222a5761222a615557565b6000918252602091829020604080516080810190915260049092020180546001600160a01b03168252600181018054929391929184019161226a906153aa565b80601f0160208091040260200160405190810160405280929190818152602001828054612296906153aa565b80156122e35780601f106122b8576101008083540402835291602001916122e3565b820191906000526020600020905b8154815290600101906020018083116122c657829003601f168201915b505050505081526020016002820154815260200160038201548152505082828151811061231257612312615557565b6020026020010181905250808061232890615391565b91505061220f565b509392505050565b60086020526000908152604090208054612351906153aa565b80601f016020809104026020016040519081016040528092919081815260200182805461237d906153aa565b80156123ca5780601f1061239f576101008083540402835291602001916123ca565b820191906000526020600020905b8154815290600101906020018083116123ad57829003601f168201915b505050505081565b6123da6138a0565b8060125481106123fd57604051631bf4348160e31b815260040160405180910390fd5b600082815260116020526040902060016004820154600160e01b900460ff16600281111561242d5761242d614b9f565b1415801561245b575060026004820154600160e01b900460ff16600281111561245857612458614b9f565b14155b15612479576040516314bc085360e21b815260040160405180910390fd5b60008381526014602052604090205460ff16156124a9576040516317968e5360e31b815260040160405180910390fd5b60008381526013602052604081205490036124d75760405163374c934360e11b815260040160405180910390fd5b60048101546001600160a01b03163314612504576040516330c6392160e11b815260040160405180910390fd5b6000838152601360208181526040808420805460148452918520805460ff1916600117905592909152919055600382015461254b90339083906001600160a01b0316613f4f565b604051818152339085907f24b5efa61dd1cfc659205a97fb8ed868f3cb8c81922bab2b96423e5de1de2cb79060200160405180910390a35050506120296001600055565b60006125d36040518060e001604052806060815260200160008152602001600081526020016000815260200160008152602001600081526020016000151581525090565b6000600b85856040516125e792919061556d565b9081526040805160209281900383018120546001600160a01b03166000818152600a9094529282902060e082019092528154929350839282908290829061262d906153aa565b80601f0160208091040260200160405190810160405280929190818152602001828054612659906153aa565b80156126a65780601f1061267b576101008083540402835291602001916126a6565b820191906000526020600020905b81548152906001019060200180831161268957829003601f168201915b505050918352505060018201546020820152600282015460408201526003820154606082015260048201546080820152600582015460a082015260069091015460ff16151560c09091015291945090925050505b9250929050565b80158061270e5750602081115b1561272c5760405163fd684c3b60e01b815260040160405180910390fd5b60006001600160a01b0316600b838360405161274992919061556d565b908152604051908190036020019020546001600160a01b03161461278057604051636bc324ad60e01b815260040160405180910390fd5b336000908152600a602052604090206006015460ff16156127b45760405163fd684c3b60e01b815260040160405180910390fd5b6040518060e0016040528083838080601f0160208091040260200160405190810160405280939291908181526020018383808284376000920182905250938552505050602080830182905260408084018390526060840183905260808401839052606460a0850152600160c090940193909352338252600a9052208151819061283d9082615439565b50602082015160018201556040808301516002830155606083015160038301556080830151600483015560a0830151600583015560c0909201516006909101805460ff1916911515919091179055513390600b9061289e908590859061556d565b90815260405190819003602001812080546001600160a01b03939093166001600160a01b03199093169290921790915533907fe04d23b73ae3d3b27074da9719b5a4cd521395aaf86bfe7e374933ecb567731a906128ff908590859061557d565b60405180910390a25050565b600c818154811061291b57600080fd5b6000918252602090912060049091020180546001820180546001600160a01b0390921693509061294a906153aa565b80601f0160208091040260200160405190810160405280929190818152602001828054612976906153aa565b80156129c35780601f10612998576101008083540402835291602001916129c3565b820191906000526020600020905b8154815290600101906020018083116129a657829003601f168201915b5050505050908060020154908060030154905084565b6129e16138a0565b6129e96138ca565b336000908152600a602052604090206006015460ff16612a1c5760405163424744c360e01b815260040160405180910390fd5b6000828152600d6020526040902060028101546001600160a01b03163314612a56576040516282b42960e81b815260040160405180910390fd5b600781015460ff1615612a7c576040516333cf58f960e01b815260040160405180910390fd5b6005810154600090612a9890600160a01b900460ff16806154f2565b9050808360ff1610612abd576040516321e08b4d60e21b815260040160405180910390fd5b60058201546001600160a01b0316612af85781600401543414612af35760405163094b6dbb60e41b815260040160405180910390fd5b612b94565b3415612b175760405163094b6dbb60e41b815260040160405180910390fd5b60058201546004808401546040516323b872dd60e01b81526001600160a01b03909316926323b872dd92612b4f92339230920161533a565b6020604051808303816000875af1158015612b6e573d6000803e3d6000fd5b505050506040513d601f19601f82011682018060405250810190612b92919061535e565b505b60078201805460ff191660011790556012805460009182612bb483615391565b909155506000818152601160209081526040808320875481546001600160a01b039182166001600160a01b031991821617835560018084018054339084161790556004808c018054600287015560058d0180546003880180549188169682168717815582546001600160a81b0319909216909617600160a01b9182900460ff90811683029190911760ff60a81b1916909655928701805468ffffffffffffffffff60a01b1916426001600160401b03169094029390931790925560108852868920938e16808a5293885297869020805460ff191690921790915560088b018890558a54965490548551918252958101919091529381168484015291519495509392169184917f05c659c69fbacea8afd8439602b5882ad74a3ecbc422a4f15d54c79db70e1ce8919081900360600190a3835460405160ff871681526001600160a01b0390911690839060008051602061579b8339815191529060200160405180910390a3604051829087907f0e3e71918165b205241b092b9121bb9b847e17f66b161239b21639fa61237ed990600090a3612d4e82613973565b5050505061197d6001600055565b612d646138a0565b816012548110612d8757604051631bf4348160e31b815260040160405180910390fd5b8260008082815260116020526040902060040154600160e01b900460ff166002811115612db657612db6614b9f565b14612dd457604051634065aaf160e11b815260040160405180910390fd5b612ddc6138ca565b336000908152600a602052604090206006015460ff16612e0f5760405163424744c360e01b815260040160405180910390fd5b600084815260116020526040902060018101546001600160a01b031615612e4957604051633633a83b60e21b815260040160405180910390fd5b80546001600160a01b03163303612e7357604051634898202560e11b815260040160405180910390fd5b6003810154600090612e8f90600160a01b900460ff16806154f2565b9050808560ff1610612eb4576040516321e08b4d60e21b815260040160405180910390fd5b600086815260106020908152604080832060ff808a1685529252909120541615612ef1576040516377b19ff960e01b815260040160405180910390fd5b60038201546001600160a01b0316612f2c5781600201543414612f275760405163094b6dbb60e41b815260040160405180910390fd5b612fc9565b3415612f4b5760405163094b6dbb60e41b815260040160405180910390fd5b600382015460028301546040516323b872dd60e01b81526001600160a01b03909216916323b872dd91612f84913391309160040161533a565b6020604051808303816000875af1158015612fa3573d6000803e3d6000fd5b505050506040513d601f19601f82011682018060405250810190612fc7919061535e565b505b6001820180546001600160a01b03191633908117909155600087815260106020908152604080832060ff8a1680855290835292819020805460ff1916600217905560038601805460ff60a81b1916600160a81b1790556004860180546001600160401b034216600160a01b0267ffffffffffffffff60a01b199091161790555191825288917f9543429ff4d0366bda7e6f7907ab4d8c123ad250f9a8d6ecffabe880ab084e04910160405180910390a360405160ff861681523390879060008051602061579b8339815191529060200160405180910390a3612d4e86613973565b6060600980548060200260200160405190810160405280929190818152602001828054801561310257602002820191906000526020600020905b81546001600160a01b031681526001909101906020018083116130e4575b5050505050905090565b6131146138a0565b61311c6138ca565b336000908152600a602052604090206006015460ff1661314f5760405163424744c360e01b815260040160405180910390fd5b836000036131705760405163aa82224960e01b815260040160405180910390fd5b8060ff1660031415801561318857508060ff16600514155b801561319857508060ff16600714155b156131b657604051630ffd11ad60e01b815260040160405180910390fd5b6001600160a01b03821660009081526007602052604090205460ff166131ef57604051630c55eb0360e21b815260040160405180910390fd5b60006131fe60ff8316806154f2565b9050808460ff1610613223576040516321e08b4d60e21b815260040160405180910390fd5b6001600160a01b038316613256578434146132515760405163094b6dbb60e41b815260040160405180910390fd5b6132ea565b34156132755760405163094b6dbb60e41b815260040160405180910390fd5b6040516323b872dd60e01b81526001600160a01b038416906323b872dd906132a590339030908a9060040161533a565b6020604051808303816000875af11580156132c4573d6000803e3d6000fd5b505050506040513d601f19601f820116820180604052508101906132e8919061535e565b505b60128054600091826132fb83615391565b9091555060008181526011602052604081208054336001600160a01b0319909116178155600281018990556003810180546001600160a01b0389166001600160a81b031990911617600160a01b60ff8916021760ff60a81b19169055600481018054939450909260ff60e01b1916600160e01b83021790555060048101805467ffffffffffffffff60a01b1916600160a01b426001600160401b031602179055600082815260106020908152604080832060ff8a1680855290835292819020805460ff1916600117905580518a8152918201929092526001600160a01b03871691810191909152339083907f05c659c69fbacea8afd8439602b5882ad74a3ecbc422a4f15d54c79db70e1ce89060600160405180910390a360405160ff871681523390839060008051602061579b8339815191529060200160405180910390a35050506111966001600055565b600a60205260009081526040902080548190613463906153aa565b80601f016020809104026020016040519081016040528092919081815260200182805461348f906153aa565b80156134dc5780601f106134b1576101008083540402835291602001916134dc565b820191906000526020600020905b8154815290600101906020018083116134bf57829003601f168201915b5050506001840154600285015460038601546004870154600588015460069098015496979396929550909350919060ff1687565b3360009081526006602052604090205460ff16158015613552575060015461010090046001600160a01b03166001600160a01b0316336001600160a01b031614155b1561357057604051637bfa4b9f60e01b815260040160405180910390fd5b6001600160a01b038416600090815260076020526040902080548415801560ff1983161790925560ff16906135ca5781156135ca576001600160a01b03851660009081526008602052604090206135c88385836155ac565b505b8380156135d5575080155b1561368a576009546000805b8281101561363157876001600160a01b03166009828154811061360657613606615557565b6000918252602090912001546001600160a01b0316036136295760019150613631565b6001016135e1565b508061368357600980546001810182556000919091527f6e1540171b6c0c960b71a7020d9f60077f6af931a8bbf590da0223dacf75c7af0180546001600160a01b0319166001600160a01b0389161790555b5050613799565b831580156136955750805b156137995760095460005b8181101561379657866001600160a01b0316600982815481106136c5576136c5615557565b6000918252602090912001546001600160a01b03160361378e5760096136ec600184615522565b815481106136fc576136fc615557565b600091825260209091200154600980546001600160a01b03909216918390811061372857613728615557565b9060005260206000200160006101000a8154816001600160a01b0302191690836001600160a01b03160217905550600980548061376757613767615665565b600082815260209020810160001990810180546001600160a01b0319169055019055613796565b6001016136a0565b50505b846001600160a01b03167fd86c88b4a367d9b81a6e00c9d3f7d01657bffef358fa8968c91c045ae99f0d52856040516137d6911515815260200190565b60405180910390a25050505050565b6001600160a01b0381166000908152600f6020908152604091829020805483518184028101840190945280845260609392830182828015611a4b57602002820191906000526020600020905b8154815260200190600101908083116138315750505050509050919050565b6138586138ee565b6001600160a01b03811661388757604051631e4fbdf760e01b8152600060048201526024015b60405180910390fd5b61202981613eba565b601580549060006115a58361567b565b6002600054036138c357604051633ee5aeb560e01b815260040160405180910390fd5b6002600055565b60015460ff16156115935760405163d93c066560e01b815260040160405180910390fd5b6001546001600160a01b036101009091041633146115935760405163118cdaa760e01b815233600482015260240161387e565b613929614858565b6001805460ff191690557f5db9ee0a495bf2e6ff9c91a7834c1ba4fdd244a5e8aa4e537bd38aeae4b073aa335b6040516001600160a01b03909116815260200160405180910390a1565b600081815260116020526040812060038101549091600160a01b90910460ff169061399e82806154f2565b60008581526010602052604081209192505b8360ff16811015613ab75760005b6139c9600386615692565b60ff168111613aae576000816139e260ff8816856154f2565b6139ec919061550f565b60008181526020869052604090205490915060ff168015801590613a335750846000613a1984600161550f565b815260208101919091526040016000205460ff8281169116145b8015613a625750846000613a4884600261550f565b815260208101919091526040016000205460ff8281169116145b15613aa457613a99898260ff16600114613a895760018a01546001600160a01b031661487b565b89546001600160a01b031661487b565b505050505050505050565b50506001016139be565b506001016139b0565b5060005b8360ff16811015613bb65760005b613ad4600386615692565b60ff168111613bad57600082613aed60ff8816846154f2565b613af7919061550f565b60008181526020869052604090205490915060ff168015801590613b405750846000613b2660ff8a168561550f565b815260208101919091526040016000205460ff8281169116145b8015613b7c5750846000613b558960026156ab565b613b629060ff168561550f565b815260208101919091526040016000205460ff8281169116145b15613ba357613a99898260ff16600114613a895760018a01546001600160a01b031661487b565b5050600101613ac9565b50600101613abb565b5060005b613bc5600385615692565b60ff168111613cec5760005b613bdc600386615692565b60ff168111613ce357600081613bf560ff8816856154f2565b613bff919061550f565b60008181526020869052604081205491925060ff91821691613c239089168461550f565b613c2e90600161550f565b90506000613c3f60ff8a168361550f565b613c4a90600161550f565b905060ff831615801590613c71575060008281526020889052604090205460ff8481169116145b8015613c90575060008181526020889052604090205460ff8481169116145b15613cd457613cc78b8460ff16600114613cb75760018c01546001600160a01b031661487b565b8b546001600160a01b031661487b565b5050505050505050505050565b84600101945050505050613bd1565b50600101613bba565b5060005b613cfb600385615692565b60ff168111613dff5760025b8460ff16811015613df657600081613d2260ff8816856154f2565b613d2c919061550f565b60008181526020869052604081205491925060ff91821691600190613d53908a168561550f565b613d5d9190615522565b905060006001613d7060ff8b168461550f565b613d7a9190615522565b905060ff831615801590613da1575060008281526020889052604090205460ff8481169116145b8015613dc0575060008181526020889052604090205460ff8481169116145b15613de757613cc78b8460ff16600114613cb75760018c01546001600160a01b031661487b565b84600101945050505050613d07565b50600101613cf0565b5060005b82811015613e335760008181526020839052604081205460ff169003613e2b57505050505050565b600101613e03565b5060048401805460ff60e01b1916600160e01b179055600284015484546003860154613e6d916001600160a01b0390811691849116613f4f565b60018501546003860154613e8f916001600160a01b0390811691849116613f4f565b8454600180870154613eb2926001600160a01b0390811692911690600090614066565b505050505050565b600180546001600160a01b03838116610100818102610100600160a81b031985161790945560405193909204169182907f8be0079c531659141344cd1fd0a4f28419497f9722a3daafe3b4186f6b6457e090600090a35050565b613f1c6138ca565b6001805460ff1916811790557f62e78cea01bee320cd4e420270b5ea74000d11b0c9f74754ebdbfc544b05a25833613956565b6001600160a01b038116613fd1576000836001600160a01b03168360405160006040518083038185875af1925050503d8060008114613faa576040519150601f19603f3d011682016040523d82523d6000602084013e613faf565b606091505b5050905080611196576040516312171d8360e31b815260040160405180910390fd5b60405163a9059cbb60e01b81526001600160a01b0384811660048301526024820184905282169063a9059cbb906044016020604051808303816000875af1158015614020573d6000803e3d6000fd5b505050506040513d601f19601f82011682018060405250810190614044919061535e565b614061576040516312171d8360e31b815260040160405180910390fd5b505050565b8015614121576001600160a01b0384166000908152600a6020526040812060030180549161409383615391565b90915550506001600160a01b0383166000908152600a602052604081206003018054916140bf83615391565b90915550506001600160a01b0384166000908152600a602052604081206004018054916140eb83615391565b90915550506001600160a01b0383166000908152600a6020526040812060040180549161411783615391565b9190505550611196565b6000846001600160a01b0316836001600160a01b0316146141425784614144565b835b6001600160a01b0384166000908152600a6020526040812060010180549293509061416e83615391565b90915550506001600160a01b0381166000908152600a6020526040812060020180549161419a83615391565b90915550506001600160a01b0383166000908152600a602052604081206004018054916141c683615391565b90915550506001600160a01b0381166000908152600a602052604081206004018054916141f283615391565b919050555061420183826149a3565b5050505050565b6001600160a01b0381166000908152600a6020526040808220815160e08101909252805482908290614239906153aa565b80601f0160208091040260200160405190810160405280929190818152602001828054614265906153aa565b80156142b25780601f10614287576101008083540402835291602001916142b2565b820191906000526020600020905b81548152906001019060200180831161429557829003601f168201915b505050918352505060018201546020820152600282015460408201526003820154606082015260048201546080820152600582015460a082015260069091015460ff16151560c090910152600c54909150600081815b838110156143f957856001600160a01b0316600c828154811061432d5761432d615557565b60009182526020909120600490910201546001600160a01b0316036143af578460a00151600c828154811061436457614364615557565b9060005260206000209060040201600201819055508460200151600c828154811061439157614391615557565b906000526020600020906004020160030181905550600192506143f9565b821580156143e45750600c81815481106143cb576143cb615557565b9060005260206000209060040201600201548560a00151115b156143f1578091506143f9565b600101614308565b50811580156144085750606481105b156145c957600c80546001018155600052825b818111156144bf57600c614430600183615522565b8154811061444057614440615557565b9060005260206000209060040201600c828154811061446157614461615557565b60009182526020909120825460049092020180546001600160a01b0319166001600160a01b039092169190911781556001808201906144a2908401826156ce565b50600282810154908201556003918201549101556000190161441b565b506040518060800160405280866001600160a01b03168152602001856000015181526020018560a0015181526020018560200151815250600c828154811061450957614509615557565b600091825260209182902083516004929092020180546001600160a01b0319166001600160a01b0390921691909117815590820151600182019061454d9082615439565b5060408201516002820155606090910151600390910155600c54606410156145c457600c80548061458057614580615665565b60008281526020812060046000199093019283020180546001600160a01b0319168155906145b16001830182614a94565b5060006002820181905560039091015590555b614201565b81156142015760005b6145dd600185615522565b811015613eb257600c6145f182600161550f565b8154811061460157614601615557565b906000526020600020906004020160020154600c828154811061462657614626615557565b9060005260206000209060040201600201541015614850576000600c828154811061465357614653615557565b6000918252602091829020604080516080810190915260049092020180546001600160a01b031682526001810180549293919291840191614693906153aa565b80601f01602080910402602001604051908101604052809291908181526020018280546146bf906153aa565b801561470c5780601f106146e15761010080835404028352916020019161470c565b820191906000526020600020905b8154815290600101906020018083116146ef57829003601f168201915b5050509183525050600282015460208201526003909101546040909101529050600c61473983600161550f565b8154811061474957614749615557565b9060005260206000209060040201600c838154811061476a5761476a615557565b60009182526020909120825460049092020180546001600160a01b0319166001600160a01b039092169190911781556001808201906147ab908401826156ce565b506002828101549082015560039182015491015580600c6147cd84600161550f565b815481106147dd576147dd615557565b600091825260209182902083516004929092020180546001600160a01b0319166001600160a01b039092169190911781559082015160018201906148219082615439565b5060408201516002820155606090910151600390910155811561484a576148478261567b565b91505b506145d2565b6001016145d2565b60015460ff1661159357604051638dfc202b60e01b815260040160405180910390fd5b6000828152601160205260408120600481018054600160e01b600168ff000000000000000160a01b03199091166001600160a01b038616171790556002808201549192916148c8916154f2565b90506000612710600354836148dd91906154f2565b6148e79190615535565b905060006148f58284615522565b60008781526013602052604090208190559050811561492e57600454600385015461492e916001600160a01b0390811691859116613f4f565b8354600185015461494e916001600160a01b039081169116876000614066565b61495785614208565b846001600160a01b0316867f9e59e9b0ec1755ccaf2fd4a7ed4ad5b0a678626e91834aee53ebdf1356bd390a8360405161499391815260200190565b60405180910390a3505050505050565b6001600160a01b038083166000908152600a602052604080822060059081015493851683529082200154908183116149e4576149df8383615522565b6149ee565b6149ee8284615522565b905060006005548211614a015781614a05565b6005545b905083614a12828261550f565b1115614a3f57614a22818561550f565b6001600160a01b0387166000908152600a60205260409020600501555b80831115614a7257614a518184615522565b6001600160a01b0386166000908152600a6020526040902060050155613eb2565b505050506001600160a01b03166000908152600a602052604081206005015550565b508054614aa0906153aa565b6000825580601f10614ab0575050565b601f01602090049060005260206000209081019061202991905b80821115614ade5760008155600101614aca565b5090565b80356001600160a01b0381168114614af957600080fd5b919050565b60008060408385031215614b1157600080fd5b614b1a83614ae2565b946020939093013593505050565b600060208284031215614b3a57600080fd5b5035919050565b803560ff81168114614af957600080fd5b60008060008060808587031215614b6857600080fd5b614b7185614ae2565b935060208501359250614b8660408601614ae2565b9150614b9460608601614b41565b905092959194509250565b634e487b7160e01b600052602160045260246000fd5b60038110614bd357634e487b7160e01b600052602160045260246000fd5b9052565b6001600160a01b038a81168252898116602083015260408201899052878116606083015260ff8716608083015285151560a0830152841660c08201526001600160401b03831660e08201526101208101614c35610100830184614bb5565b9a9950505050505050505050565b600060208284031215614c5557600080fd5b614c5e82614ae2565b9392505050565b60008060408385031215614c7857600080fd5b50508035926020909101359150565b6000815180845260005b81811015614cad57602081850181015186830182015201614c91565b506000602082860101526020601f19601f83011685010191505092915050565b60208152614ce76020820183516001600160a01b03169052565b60006020830151610140806040850152614d05610160850183614c87565b91506040850151614d2160608601826001600160a01b03169052565b506060850151848303601f19016080860152614d3d8382614c87565b925050608085015160a085015260a0850151614d6460c08601826001600160a01b03169052565b5060c085015160ff811660e08601525060e085015161010085810191909152850151610120614d968187018315159052565b959095015193019290925250919050565b6000815160e08452614dbc60e0850182614c87565b90506020830151602085015260408301516040850152606083015160608501526080830151608085015260a083015160a085015260c0830151151560c08501528091505092915050565b602081526000614c5e6020830184614da7565b60008060408385031215614e2c57600080fd5b82359150614e3c60208401614b41565b90509250929050565b602081526000614c5e6020830184614c87565b6001600160a01b038b8116825261014060208301819052600091614e7e8483018e614c87565b9150808c1660408501528382036060850152614e9a828c614c87565b608085019a909a529790971660a08301525060ff9490941660c085015260e084019290925215156101008301526101209091015250949350505050565b81516001600160a01b0390811682526020808401518216908301526040808401519083015260608084015191821690830152610120820190506080830151614f24608084018260ff169052565b5060a0830151614f3860a084018215159052565b5060c0830151614f5360c08401826001600160a01b03169052565b5060e0830151614f6e60e08401826001600160401b03169052565b5061010080840151614f8282850182614bb5565b505092915050565b60006020808301818452808551808352604092508286019150828160051b87010184880160005b8381101561501257888303603f19018552815180516001600160a01b0316845287810151608089860181905290614fea82870182614c87565b838a0151878b0152606093840151939096019290925250509386019390860190600101614fb1565b509098975050505050505050565b60008083601f84011261503257600080fd5b5081356001600160401b0381111561504957600080fd5b6020830191508360208285010111156126fa57600080fd5b6000806020838503121561507457600080fd5b82356001600160401b0381111561508a57600080fd5b61509685828601615020565b90969095509350505050565b6001600160a01b03831681526040602082018190526000906150c690830184614da7565b949350505050565b6001600160a01b03851681526080602082018190526000906150f290830186614c87565b6040830194909452506060015292915050565b6020808252825182820181905260009190848201906040850190845b818110156151465783516001600160a01b031683529284019291840191600101615121565b50909695505050505050565b6000806000806080858703121561516857600080fd5b8435935061517860208601614b41565b9250614b8660408601614ae2565b60e08152600061519960e083018a614c87565b60208301989098525060408101959095526060850193909352608084019190915260a0830152151560c090910152919050565b801515811461202957600080fd5b600080600080606085870312156151f057600080fd5b6151f985614ae2565b93506020850135615209816151cc565b925060408501356001600160401b0381111561522457600080fd5b61523087828801615020565b95989497509550505050565b6020808252825182820181905260009190848201906040850190845b8181101561514657835183529284019291840191600101615258565b634e487b7160e01b600052604160045260246000fd5b60006020828403121561529c57600080fd5b81356001600160401b03808211156152b357600080fd5b818401915084601f8301126152c757600080fd5b8135818111156152d9576152d9615274565b604051601f8201601f19908116603f0116810190838211818310171561530157615301615274565b8160405282815287602084870101111561531a57600080fd5b826020860160208301376000928101602001929092525095945050505050565b6001600160a01b039384168152919092166020820152604081019190915260600190565b60006020828403121561537057600080fd5b8151614c5e816151cc565b634e487b7160e01b600052601160045260246000fd5b6000600182016153a3576153a361537b565b5060010190565b600181811c908216806153be57607f821691505b602082108103611c5857634e487b7160e01b600052602260045260246000fd5b601f82111561406157600081815260208120601f850160051c810160208610156154055750805b601f850160051c820191505b81811015613eb257828155600101615411565b600019600383901b1c191660019190911b1790565b81516001600160401b0381111561545257615452615274565b6154668161546084546153aa565b846153de565b602080601f83116001811461549557600084156154835750858301515b61548d8582615424565b865550613eb2565b600085815260208120601f198616915b828110156154c4578886015182559484019460019091019084016154a5565b50858210156154e25787850151600019600388901b60f8161c191681555b5050505050600190811b01905550565b80820281158282048414176155095761550961537b565b92915050565b808201808211156155095761550961537b565b818103818111156155095761550961537b565b60008261555257634e487b7160e01b600052601260045260246000fd5b500490565b634e487b7160e01b600052603260045260246000fd5b8183823760009101908152919050565b60208152816020820152818360408301376000818301604090810191909152601f909201601f19160101919050565b6001600160401b038311156155c3576155c3615274565b6155d7836155d183546153aa565b836153de565b6000601f84116001811461560557600085156155f35750838201355b6155fd8682615424565b845550614201565b600083815260209020601f19861690835b828110156156365786850135825560209485019460019092019101615616565b50868210156156535760001960f88860031b161c19848701351681555b505060018560011b0183555050505050565b634e487b7160e01b600052603160045260246000fd5b60008161568a5761568a61537b565b506000190190565b60ff82811682821603908111156155095761550961537b565b60ff81811683821602908116908181146156c7576156c761537b565b5092915050565b8181036156d9575050565b6156e382546153aa565b6001600160401b038111156156fa576156fa615274565b6157088161546084546153aa565b6000601f82116001811461573657600083156157245750848201545b61572e8482615424565b855550614201565b600085815260209020601f19841690600086815260209020845b838110156157705782860154825560019586019590910190602001615750565b50858310156154e25793015460001960f8600387901b161c19169092555050600190811b0190555056feaa62b432dfd3b0bc94486d59fd8b60718bc3b454376f9890dd601445c34f9ed5a26469706673582212200c8fe0a583888da98eb608a60d0829dd7a52502fc9167b5f70ddeb7fbab88bb364736f6c63430008140033",
  "linkReferences": {},
  "deployedLinkReferences": {}
}